S01100004C43445F746573696E2E73726563BE
S11300000C942A000C943F000C943F000C943F0085
S11300100C943F000C943F000C943F000C943F0060
S11300200C943F000C943F000C943F000C943F0050
S11300300C943F000C943F000C943F000C943F0040
S11300400C943F000C943F000C943F000C943F0030
S11300500C943F0011241FBECFE5D8E0DEBFCDBF16
S113006010E0A0E6B0E0ECE1F2E002C005900D92F1
S1130070AC37B107D9F70E94FB000C940C010C9427
S1130080000088B3846088BB8FE99FE00197F1F793
S113009000C0000088B38B7F88BB8FE193E0019799
S11300A0F1F700C000000895CF93C82F88B38F7074
S11300B09C2F907F892B88BB88B38E7F88BB0E943E
S11300C0410028B330E1C39FC0011124922F9F70D7
S11300D0892B88BB0E944100CF910895CF93C82FEC
S11300E088B38F709C2F907F892B88BB88B38160E5
S11300F088BB0E94410028B330E1C39FC001112492
S1130100922F9F70892B88BB0E944100CF91089544
S11301108FEF87BB2FEF89EF90E021508040904014
S1130120E1F700C0000083E30E9454008FE19EE4E5
S11301300197F1F700C0000082E30E9454008FE3AE
S11301409FE10197F1F700C0000088E20E9454008B
S11301508FE39FE10197F1F700C000008CE00E945B
S113016054008FE39FE10197F1F700C0000086E09F
S11301700E9454008FE39FE10197F1F700C0000053
S113018081E00E9454008FE39FE10197F1F700C0E2
S1130190000008950F931F93CF93DF938C01C0E069
S11301A0D0E009C00E946E002196C031D10519F437
S11301B080EC0E945400F801EC0FFD1F8081811136
S11301C0F1CFDF91CF911F910F9108951F93CF939A
S11301D0DF93182FEB01209721F480E8810F0E9410
S11301E05400219721F480EC810F0E945400DF9188
S11301F0CF911F9108950E94880080E690E00E94AC
S1130200CA0061E070E080E090E00E94E6008BE6C6
S10F021090E00E94CA00FFCFF894FFCFDA
S113021C48616C6C6F2057656C740048616C6C6F32
S10F022C20556E6976657273756D0000D4
S9030000FC
