S00B00004144432E7372656351
S11300000C942A000C943F000C943F000C943F0085
S11300100C943F000C943F000C943F000C943F0060
S11300200C943F000C943F000C943F000C943F0050
S11300300C943F000C9477000C943F000C943F0008
S11300400C943F000C943F000C943F000C943F0030
S11300500C943F0011241FBECFE5D8E0DEBFCDBF16
S113006010E0A0E6B0E0E6E7F2E002C005900D92F1
S1130070A236B107D9F70E945E000C9439010C94A2
S113008000001ABA87E886B980E487B9089597B161
S1130090907F97B997B18F70982B97B986B1806488
S11300A086B9349BFECF85E38A95F1F7000024B12D
S11300B085B190E0982F8827822B08950E944100F3
S11300C080E895E20E94850080E00E9447000E943B
S11300D0C50080E690E00E94B4002FEF81EE94E02A
S11300E0215080409040E1F700C00000EDCF1F9206
S11300F00F920FB60F9211248F938CB18CB98F91FC
S11301000F900FBE0F901F901895092E000CAA0B8C
S1130110BB0B880F991FAA1FBB1F880F991FAA1F0B
S1130120BB1F9C01AD01220F331F441F551F220F1B
S1130130331F441F551F60E074E284EF90E00E9477
S1130140E200DA01C9010197A109B109892F9A2FA7
S1130150AB2FBB2780BD215029B98AB188698AB9E0
S113016080B5866880BD08955D9BFECF8CB90895E7
S1130170CF93DF93EC0103C021960E94B4008881E1
S11301808111FACFDF91CF910895CF93DF93CDB74B
S1130190DEB72C970FB6F894DEBF0FBECDBF4AE092
S11301A0BE016F5F7F4F0E940401CE0101960E9441
S11301B0B8002C960FB6F894DEBF0FBECDBFDF910A
S11301C0CF910895A1E21A2EAA1BBB1BFD010DC0FD
S11301D0AA1FBB1FEE1FFF1FA217B307E407F507F3
S11301E020F0A21BB30BE40BF50B661F771F881FCF
S11301F0991F1A9469F760957095809590959B0165
S1130200AC01BD01CF010895BB274A3031F49923D5
S113021022F4BDE2909581959F4F0C941001BB2769
S1130220FB015527AA27880F991FAA1FA41710F0AE
S1130230A41B83955051B9F7A05DAA3308F0A95DBA
S1130240A193009779F7B111B1931192CB010C945A
S11302502901DC01FC01672F71917723E1F73297C3
S113026004C07C916D9370836291AE17BF07C8F38D
S10902700895F894FFCF8D
S1050276200062
S9030000FC
