:100000000C942A000C943C000C943C000C943C0092
:100010000C948A000C943C000C943C000C943C0022
:100020000C943C000C943C000C943C000C943C0060
:100030000C943C000C943C000C943C000C943C0050
:100040000C943C000C943C000C943C000C943C0040
:100050000C943C0011241FBECFE5D8E0DEBFCDBF1D
:1000600020E0A0E6B0E001C01D92A836B207E1F79B
:100070000E943E000C94FB000C940000CF93DF9391
:1000800000D000D01F92CDB7DEB78FEF87BB0E94A4
:10009000C90078940E94D500622E732E842E952E6E
:1000A0006D8379838A839B830E94D5002C83232EC2
:1000B000342E452E562EB72FF82FE92F262D372D0B
:1000C000482D592D6D8179818A819B81A4E60E94FA
:1000D000E600A22EB32EC42ED52EE62EF72E082F24
:1000E000192F2C81322D432D542D652D7B2F8F2FD1
:1000F0009E2F0E94F200C0F288B3809588BB0E94B8
:10010000D500622E732E842E952E6D8379838A837B
:100110009B83CACF1F920F920FB60F9211242F9379
:100120003F934F935F936F937F938F939F93AF937F
:100130002091600030916100409162005091630015
:1001400060916400709165008091660090916700F5
:10015000A1E00E94E600209360003093610040938C
:100160006200509363006093640070936500809315
:10017000660090936700AF919F918F917F916F91EF
:100180005F914F913F912F910F900FBE0F901F9055
:10019000189585B5886085BD85B5846085BD8AEF75
:1001A00083BD89B7806889BF089520916000309130
:1001B0006100409162005091630060916400709111
:1001C0006500809166009091670008950024A7FD66
:1001D00000942A0F301D401D501D601D701D801D94
:1001E000901D08952A153B054C055D056E057F059C
:0A01F000800791070895F894FFCFEF
:00000001FF
