:100000000C942A000C9436000C9444000C94340098
:100010000C9434000C9434000C9434000C94340090
:100020000C9434000C9434000C9434000C94340080
:100030000C9434000C9434000C9434000C94340070
:100040000C9434000C9434000C9434000C94340060
:100050000C94340011241FBECFE5D8E0DEBFCDBF25
:100060000E945E000C9461000C9400001F920F929D
:100070000FB60F9211248F938FEF88BB8F910F9043
:100080000FBE0F901F9018951F920F920FB60F92F0
:10009000112418BA0F900FBE0F901F9018958FEF74
:1000A00087BB11BA18BA82B38C6082BB8BB7806CE5
:1000B0008BBF85B78F6085BF789408950E944F00ED
:0600C000FFCFF894FFCF12
:00000001FF
