S01C00006C6175666C696368745F6D69745F6A6F636865622E73726563D9
S11300000C942A000C9434000C9434000C943400A6
S11300100C9434000C9434000C9434000C9434008C
S11300200C9434000C9434000C9434000C9434007C
S11300300C9434000C9434000C9434000C9434006C
S11300400C9434000C9434000C9434000C9434005C
S11300500C94340011241FBECFE5D8E0DEBFCDBF21
S11300600E9436000C94A0000C9400008FEF87BB14
S113007018BA20E015C038B381E090E0022E02C027
S1130080880F991F0A94E2F7832B88BB3FEF81EE18
S113009094E0315080409040E1F700C000002F5FB1
S11300A0283048F320E016C038B381E090E0022EF7
S11300B002C0880F991F0A94E2F78095832388BBB6
S11300C03FEF81EE94E0315080409040E1F700C072
S11300D000002F5F283040F327E015C038B381E0DB
S11300E090E0022E02C0880F991F0A94E2F7832B36
S11300F088BB3FEF81EE94E0315080409040E1F7BF
S113010000C00000215022234CF727E016C038B36A
S113011081E090E0022E02C0880F991F0A94E2F752
S11301208095832388BB3FEF81EE94E0315080407B
S11301309040E1F700C000002150222344F799CFFA
S1070140F894FFCF5D
S9030000FC
