:100000000C942A000C9434000C9434000C943400AA
:100010000C9434000C9434000C9434000C94340090
:100020000C9434000C9434000C9434000C94340080
:100030000C9434000C9434000C9434000C94340070
:100040000C9434000C9434000C9434000C94340060
:100050000C94340011241FBECFE5D8E0DEBFCDBF25
:100060000E9456000C9471000C94000080EC88BB38
:10007000089580E888BB089580E288BB089580E4F5
:1000800088BB089520E030E00BC04FEF53ED90E3C4
:10009000415050409040E1F700C000002F5F3F4FBB
:1000A000482F50E02417350784F308958FEF87BB5E
:1000B0000E94390082E090E00E9442000E943600D7
:1000C00081E090E00E9442000E943C0082E090E0CB
:1000D0000E9442000E943F0081E090E00E944200A6
:0600E000E7CFF894FFCF0A
:00000001FF
