S0100000666173745F70776D2E73726563B3
S11300000C942A000C9434000C9434000C943400A6
S11300100C9434000C9434000C9434000C9434008C
S11300200C9434000C9434000C9434000C9434007C
S11300300C9434000C9434000C9434000C9434006C
S11300400C9434000C9434000C9434000C9434005C
S11300500C94340011241FBECFE5D8E0DEBFCDBF21
S11300600E9436000C944F000C9400000E9449003A
S11300701CBE91E080E08CBF890FEFE3FCE931976F
S1130080F1F700C000002FEF280F2E3FA0F3919549
S1130090F2CF8CE683BF87B3886087BB0895F8945A
S10500A0FFCF8C
S9030000FC
