:100000000C942A000C943F000C943F000C943F0089
:100010000C943F000C943F000C943F000C943F0064
:100020000C943F000C943F000C943F000C943F0054
:100030000C943F000C9410010C943F000C943F0072
:100040000C943F000C943F000C943F000C943F0034
:100050000C943F0011241FBECFE5D8E0DEBFCDBF1A
:1000600010E0A0E6B0E0E8EDF2E002C005900D92ED
:10007000A439B107D9F70E949E000C946A010C9430
:10008000000082B984EC86BF089506B607FEFDCF56
:1000900081B1887F803661F0883661F0883A61F0FE
:1000A000803B61F0803761F0883779F782E008950E
:1000B00080E0089580E0089581E0089581E008954A
:1000C00082E0089583B984EC86BF06B607FEFDCFB3
:1000D00081B1887F803A29F486B7806886BF8FEF28
:1000E0000895883B59F0803C29F486B7806886BF24
:1000F0008EEF0895883C21F48DEF089580E00895F7
:100100008CEF089584EC86BF06B607FEFDCF81B163
:10011000887F803811F0803911F483B108958838D0
:1001200011F0883911F483B10895803A29F486B723
:10013000806886BF8FEF08958EEF0895CF93DF9389
:10014000CDB7DEB72A970FB6F894DEBF0FBECDBF8E
:100150000E94EB0080E20E94410080E690E00E9455
:10016000090110E00E944500882319F08130C9F090
:10017000F9CF8DE690E00E9409014AE0BE016F5F71
:100180007F4F812F110F990B0E943501CE010196EF
:100190000E9409010E948200182F8F3F71F710E022
:1001A000E1CF80E890E00E940901812F0E94620067
:1001B000082F4AE0BE016F5F7F4F812F012E000C98
:1001C000990B0E943501CE0101960E9409011F5F23
:1001D000002359F3C7CF10BC83E389B98AB1886182
:1001E0008AB98AB180688AB980B5866880BD089569
:1001F0005D9BFECF8CB90895CF93DF93EC0103C0D4
:1002000021960E94F80088818111FACFDF91CF9169
:1002100008950E94FC0081E990E00E94FC0008958E
:100220001F920F920FB60F9211242F933F934F936B
:100230005F936F937F938F939F93AF93BF93EF934E
:10024000FF938CB10E94F800FF91EF91BF91AF91A5
:100250009F918F917F916F915F914F913F912F91DE
:100260000F900FBE0F901F901895BB274A3031F4A6
:10027000992322F4BDE2909581959F4F0C94410102
:10028000BB27FB015527AA27880F991FAA1FA41770
:1002900010F0A41B83955051B9F7A05DAA3308F064
:1002A000A95DA193009779F7B111B1931192CB0198
:1002B0000C945A01DC01FC01672F71917723E1F75F
:1002C000329704C07C916D9370836291AE17BF0723
:0802D000C8F30895F894FFCF74
:1002D800536C617665204465766963650052656391
:1002E800656976696E67203A20202020202020004A
:1002F80053656E64696E67203A20202020202020F4
:04030800000D0A00DA
:00000001FF
