S01100005457494D61737465722E73726563B3
S11300000C942A000C943F000C943F000C943F0085
S11300100C943F000C943F000C943F000C943F0060
S11300200C943F000C943F000C943F000C943F0050
S11300300C943F000C944B010C943F000C943F0033
S11300400C943F000C943F000C943F000C943F0030
S11300500C943F0011241FBECFE5D8E0DEBFCDBF16
S113006010E0A0E6B0E0EEE4F3E002C005900D92EB
S1130070A639B107D9F70E94B0000C94A5010C94DD
S113008000002FEF81EE94E0215080409040E1F792
S113009000C0000011B888E480B984E086BF0895E8
S11300A094EA96BF06B607FEFDCF91B1987F9830CB
S11300B071F483B984E886BF06B607FEFDCF81B12B
S11300C0887F883131F0803231F482E0089580E015
S11300D0089581E0089583E0089594EA96BF06B6F2
S11300E007FEFDCF91B1987F903171F483B984E814
S11300F086BF06B607FEFDCF81B1887F803431F01C
S1130100803231F482E0089580E0089581E008951A
S113011083E0089584E986BF06B604FCFDCF089504
S113012083B984E886BF06B607FEFDCF81B1887F18
S1130130883221F0803321F481E0089580E008952D
S113014082E0089584EC86BF06B607FEFDCF83B136
S1130150089584E886BF06B607FEFDCF83B10895EF
S1130160CF93DF93CDB7DEB72A970FB6F894DEBFEF
S11301700FBECDBF0E9426010E94410080E690E0A0
S11301800E9444018EE690E00E94440180E20E94B5
S1130190500090E00E9444018FE19EE40197F1F742
S11301A000C0000010E019C04AE0BE016F5F7F4F3D
S11301B0812F90E00E947001CE0101960E944401BB
S11301C0812F0E9490009FEF29E688E19150204002
S11301D08040E1F700C000001F5F1A3028F38FE76A
S11301E090E00E94440181E20E946D008FE19EE450
S11301F00197F1F700C0000010E023C0193050F45B
S11302000E94A2004AE0BE016F5F7F4F90E00E940F
S1130210700109C00E94A9004AE0BE016F5F7F4FD0
S113022090E00E947001CE0101960E9444019FEF6C
S113023029E688E1915020408040E1F700C00000A9
S11302401F5F1A30D8F20E948A009CCF10BC87E648
S113025089B98AB188618AB98AB180688AB980B556
S1130260866880BD08955D9BFECF8CB90895CF93B9
S1130270DF93EC0103C021960E9433018881811130
S1130280FACFDF91CF9108950E94370182E990E07F
S11302900E94370108951F920F920FB60F921124F6
S11302A02F933F934F935F936F937F938F939F937A
S11302B0AF93BF93EF93FF938CB10E943301FF91EF
S11302C0EF91BF91AF919F918F917F916F915F91CA
S11302D04F913F912F910F900FBE0F901F90189543
S11302E0BB274A3031F4992322F4BDE290958195DD
S11302F09F4F0C947C01BB27FB015527AA27880F2D
S1130300991FAA1FA41710F0A41B83955051B9F785
S1130310A05DAA3308F0A95DA193009779F7B11104
S1130320B1931192CB010C949501DC01FC01672F70
S113033071917723E1F7329704C07C916D937083B8
S11103406291AE17BF07C8F30895F894FFCF7B
S113034E4D61737465722044657669636500536507
S113035E6E64696E67203A202020202020200052EF
S113036E6563656976696E67203A20202020202017
S109037E20000D0A00003E
S9030000FC
