:100000000C942A000C9447000C9447000C94470071
:100010000C9447000C9447000C9447000C94470044
:100020000C9447000C9447000C9447000C94470034
:100030000C9447000C9454000C9447000C94470017
:100040000C9447000C9447000C9447000C94470014
:100050000C94470011241FBECFE5D8E0DEBFCDBF12
:1000600010E0A0E6B0E0EEE8F1E002C005900D92ED
:10007000A036B107D9F720E0A0E6B0E001C01D929C
:10008000A236B207E1F70E944C000C94C5000C9414
:1000900000000E949F00089560E875E289E490E006
:1000A0000E947E007894FFCF1F920F920FB60F929E
:1000B00011242F933F934F935F936F937F938F936D
:1000C0009F93AF93BF93EF93FF93E0916000F09104
:1000D0006100309711F08CB10995FF91EF91BF91BC
:1000E000AF919F918F917F916F915F914F913F91D0
:1000F0002F910F900FBE0F901F9018959093610055
:10010000809360009B01770F440B550B60E472E411
:100110008FE090E00E94A300DA01C9010197A109D4
:10012000B109892F9A2FAB2FBB2780BD215029B948
:100130008AB188698AB980B5866880BD08955D9B5B
:10014000FECF8CB90895A1E21A2EAA1BBB1BFD019C
:100150000DC0AA1FBB1FEE1FFF1FA217B307E407A6
:10016000F50720F0A21BB30BE40BF50B661F771FFE
:10017000881F991F1A9469F76095709580959095DE
:0E0180009B01AC01BD01CF010895F894FFCFA3
:00000001FF
