S0180000426C696E6B656E5F6D69745F6865727A2E7372656388
S11300000C942A000C9434000C9434000C943400A6
S11300100C9434000C9434000C9434000C9434008C
S11300200C9434000C9434000C9436000C9434007A
S11300300C9434000C9434000C9434000C9434006C
S11300400C9434000C9434000C9434000C9434005C
S11300500C94340011241FBECFE5D8E0DEBFCDBF21
S11300600E9445000C9452000C9400001F920F92C1
S11300700FB60F9211248F9388B3809588BB8F910C
S11300800F900FBE0F901F9018958FEF87BB18BA73
S113009083B7886083BF86E48CBF789483B7846019
S10B00A083BFFFCFF894FFCFEA
S9030000FC
